S00E000047466F7263652E73726563E0
S31500000000A0AB0720011B0200D5110200111B020044
S31500000010111B0200111B0200111B02000000000050
S31500000020000000000000000000000000111B02009C
S31500000030111B02000000000075B003001DB1030093
S3150000004035DE000035DA01009DDA010005DB01002E
S31500000050CDA20100F3730100E5720100997301005E
S315000000603F730100BD8F010011900100A94C0100F2
S31500000070CF4A0100FD4B0100AD490100FFFFFFFF24
S31500000080FFFFFFFFFFFFFFFFFFFFFFFFFFFFFFFF7A
S31500000090FFFFFFFFFFFFFFFFFFFFFFFFFFFFFFFF6A
S315000000A0FFFFFFFFFFFFFFFFFFFFFFFFFFFFFFFF5A
S315000000B0FFFFFFFFFFFFFFFFFFFFFFFFFFFFFFFF4A
S31500000400FFFFFFFFFFFDFFFFFFFFFFFFFFFFFFFFF8
S31500000410FFFFFFFFFFFFFFFFFFFFFFFFFFFFFFFFE6
S31500000420FFFFFFFFFFFFFFFFFFFFFFFFFFFFFFFFD6
S31500000430FFFFFFFFFFFFFFFFFFFFFFFFFFFFFFFFC6
S31500000440FFFFFFFFFFFFFFFFFFFFFFFFFFFFFFFFB6
S31500000450FFFFFFFFFFFFFFFFFFFFFFFFFFFFFFFFA6
S31500000460FFFFFFFFFFFFFFFFFFFFFFFFFFFFFFFF96
S31500000470FFFFFFFFFFFFFFFFFFFFFFFFFFFFFFFF86
S31500000480FFFFFFFFFFFFFFFFFFFFFFFFFFFFFFFF76
S31500000490FFFFFFFFFFFFFFFFFFFFFFFFFFFFFFFF66
S315000004A0FFFFFFFFFFFFFFFFFFFFFFFFFFFFFFFF56
S315000004B0FFFFFFFFFFFFFFFFFFFFFFFFFFFFFFFF46
S315000004C0FFFFFFFFFFFFFFFFFFFFFFFFFFFFFFFF36
S315000004D0FFFFFFFFFFFFFFFFFFFFFFFFFFFFFFFF26
S315000004E0FFFFFFFFFFFFFFFFFFFFFFFFFFFFFFFF16
S315000004F0FFFFFFFFFFFFFFFFFFFFFFFFFFFFFFFF06
S31500000500004C0420FD014400984C0420FA014300ED
S315000005109C4C0420FB014308A04C0420FC01431022
S31500000520E807FE1F0A000648344D0420700815002F
S31500000530284D04206D081508304D04206F0815104D
S315000005402C4D04206E081518044C0420FF014500AC
S31500000550084C0420FE014508A807FE1F7701140871
S315000005609C07FE1F74011410A407FE1F76011420B9
S31500000570A007FE1F750114282000000020000100BE
S315000005802F0000002F0001000C00010011000000E8
S3150000059030000000300001002400000024000100AB
S315000005A024000200240003002400040024000500A7
S315000005B013000000170000002300000021000000C7
S315000005C021000100070000000700010007000200EB
S315000005D007000300070004000700050007000600E7
S315000005E00700070012000000440000000800000099
S315000005F00B00000041000000400000004000010028
S3150000060004000000430000002B0000002B000A003D
S315000006102B000B002B000C002B000D002B00010003
S315000006202B0002002B0003002B0004002B0005000A
S315000006302B0006002B0007002B0008002B000900EA
S315000006400600000006000A0006000B0006000C006B
S3150000065006000D0006000E0006000F000600010051
S31500000660060002000600030006000400060005005E
S31500000670060006000600070006000800060009003E
S3150000068015000000150001001500020031000000F1
S315000006902A000000450000001000000003010000D1
S315000006A003000000030001000F0000000D00000021
S315000006B02D000000420000002C0000002C0001006C
S315000006C02C0002002C00030032000000280000006D
S315000006D018000000140000001400010014000200BD
S315000006E014000300140004001400050014000600A2
S315000006F0140007001400080014000900340000006C
S31500000700340001001600000016000100350000004C
S315000007103600000036000100220000003300000011
S3150000072033010000290000000348044B834202D035
S31500000730034B03B118477047C004FE1FC004FE1FD9
S31500000740000000000548064B1B1AD90F01EBA30158
S31500000750491002D0034B03B118477047C004FE1F6F
S31500000760C004FE1F0000000010B5064C237843B9F4
S31500000770FFF7DAFF044B13B10448AFF300800123FF
S31500000780237010BD4005FE1F0000000028BE0400B7
S3150000079008B5054B1BB105490548AFF30080BDE818
S315000007A00840FFF7CFBF00BF000000004405FE1F52
S315000007B028BE040090B589B002AFF860B9607A60CF
S315000007C03B6000237B6100233B6117E0FB685B69AC
S315000007D0B8689847FB685C680A23009300233A6868
S315000007E07968B868A0477861FB689B69B8689847DC
S315000007F07B69002B06D03B6901333B613B69092BC2
S31500000800E4DD00E000BF7B6918461C37BD4690BD9D
S3150000081090B589B002AFF860B9607A603B6000239A
S315000008207B6100233B6118E0FB685B69B868984709
S31500000830FB689C6897F828300A2200923A68796823
S31500000840B868A0477861FB689B69B86898477B6978
S31500000850002B06D03B6901333B613B69092BE3DD85
S3150000086000E000BF7B6918461C37BD4690BD90B5B9
S3150000087089B002AFF860B9607A603B6000237B61A3
S3150000088000233B612CE0FB685B69B8689847FB680E
S315000008909C680A23009301233A687968B868A047E0
S315000008A07861FB689B69B86898477B69002B14D10F
S315000008B0FB685B69B8689847FB685C680A23009325
S315000008C000233A687968B868A0477861FB689B6935
S315000008D0B86898477B69002B06D03B6901333B61BA
S315000008E03B69092BCFDD00E000BF7B6918461C374A
S315000008F0BD4690BD80B586B000AF786039607B6834
S315000009007B617B6900221A757B694FF6FF721A823A
S315000009107B694FF6FF725A823B681B683B613B69F5
S315000009205A687B695A603B699A687B699A603B6939
S315000009301A887B691A803B699A897B699A813B6927
S31500000940DA897B69DA810023FB603B695B689B6817
S315000009501B683A69526810683A69526852681146CB
S315000009609847F860FB68002B01D0FB6812E03B69F2
S315000009709B689B681B683A69926810683A69926836
S31500000980526811469847F860FB68002B01D0FB6857
S3150000099000E0002318461837BD4680BD80B58AB0F2
S315000009A000AF786039607B687B627B6A5B681B6836
S315000009B03B627B6A9B681B68FB617B6A5B689B6822
S315000009C0BB617B6A9B689B687B6100233B617B699B
S315000009D05B684FF0FF31F869984738613B69002B37
S315000009E001D03B69A8E03B6800221A803B680022E0
S315000009F05A803B6803221A716323FB7207F10B02CC
S31500000A000123396AB869FFF732FF38613B69002B69
S31500000A1001D0642390E0FB7A03F00403002B02D09C
S31500000A203B6804221A7107F10C020423396AB8697B
S31500000A30FFF7C0FE38613B69002B01D064237BE0E1
S31500000A407B6A9B8919463B7BC3F30303DBB21BB26C
S31500000A501B021AB27B7B1BB213431BB201FB03F3CF
S31500000A60374A82FB03121A44D212DB17D31A1AB280
S31500000A703B681A807B6ADB891946BB7BC3F3030399
S31500000A80DBB21BB21B021AB2FB7B1BB213431BB2B7
S31500000A9001FB03F32A4A82FB03121A44D212DB1724
S31500000AA0D31A1AB23B685A807B6A1B7D012B03D08E
S31500000AB07B6A1B7D022B02D17B6A03221A757B6A35
S31500000AC01B7D032B1AD13B681B79032B16D17B6A3E
S31500000AD0B3F910203B68B3F900309A4207D17B6A1C
S31500000AE0B3F912203B68B3F902309A4203D03B684F
S31500000AF002221A7102E03B6801221A713B681A79D8
S31500000B007B6A1A753B681B79042B0AD17B6AB3F999
S31500000B1010203B681A807B6AB3F912203B685A8022
S31500000B2009E03B68B3F900207B6A1A823B68B3F997
S31500000B3002207B6A5A823B6918462837BD4680BD2B
S31500000B408100088080B58AB002AF78607B68FB615F
S31500000B50FB695B689B68BB61FB695B681B687B61C3
S31500000B6000233B613E4B1B6AFA691288002110463E
S31500000B709847022039F072FE394B1B6AFA691288CF
S31500000B80012110469847022039F068FE00233B7386
S31500000B9074237B732723BB730423FB7307F10C02B7
S31500000BA00023009304237969B869FFF731FE3861A1
S31500000BB03B69002B01D064234DE004233B73C02323
S31500000BC07B7307F10C020023009302237969B8694D
S31500000BD0FFF71EFE38613B69002B01D064233AE023
S31500000BE022233B730C237B7307F10C020023009333
S31500000BF002237969B869FFF70BFE38613B69002B60
S31500000C0001D0642327E00B233B7300237B7307F19A
S31500000C100C020023009302237969B869FFF7F8FDF7
S31500000C2038613B69002B01D0642314E0E0233B7359
S31500000C3007F10C020023009301237969B869FFF7D5
S31500000C40E7FD38613B69002B01D0642303E0FB69B3
S31500000C5005221A75002318462037BD4680BD00BF01
S31500000C60F0D5030080B586B000AF78607B683B6145
S31500000C703B695B681B68FB6000237B613B699B6883
S31500000C809B68DB683A6992681268104698477861F3
S31500000C907B69002B01D07B6920E0124B1B6A3A6905
S31500000CA01288002110469847022039F0D7FD3B698B
S31500000CB05B689B681B69F868984778617B69122BAB
S31500000CC006D13B695B689B681B69F8689847786141
S31500000CD07B69002B01D07B6900E00023184618379A
S31500000CE0BD4680BDF0D5030080B483B000AF786008
S31500000CF07B68002B01D101230CE07B6800221A706F
S31500000D007B6802225A707B6800229A707B680222F6
S31500000D10DA70002318460C37BD465DF8047B704731
S31500000D2080B483B000AF786039603B685AB27B68A4
S31500000D3083F8C6213B6818460C37BD465DF8047B30
S31500000D40704780B586B000AFF860B9607A603B60E6
S31500000D507B6A23F030037B617B6A03F01003002B70
S31500000D600CD0FB68D3F8803003F40003002B05D1C8
S31500000D700921F868FFF7D4FF034645E07B6A03F0D4
S31500000D802003002B0CD0FB68D3F8803003F400134B
S31500000D90002B05D10921F868FFF7C2FF034633E0AF
S31500000DA07B690D2B05D07B690E2B02D07B690F2B3F
S31500000DB012D1FB68D3F8803003F48033002B0BD1BB
S31500000DC0FB68D3F88030DBB2092B05D80921F86817
S31500000DD0FFF7A6FF034617E0FB685B6A3B613B69CA
S31500000DE0BA68C3F868213B697A68C3F86C213B6925
S31500000DF03A68C3F870213B693A6AC3F874213B69C3
S31500000E007A6AC3F87821002318461837BD4680BD94
S31500000E1080B59CB006AFF860B9607A607B8000232D
S31500000E207B630023FB62FB681B6BBB6200233B6397
S31500000E30FB685B6A7B627B6AD3F8783103F0100348
S31500000E40FB627B6AD3F86C31B3F5006F03DB7B6F13
S31500000E5023F008037B67BB687B647B683B647A8806
S31500000E607B6C1A447B6AD3F870319A4205DD7B6A43
S31500000E70D3F870217B88D31A7B64B7F860203B6C6B
S31500000E801A447B6AD3F874319A4206DD7B6AD3F83A
S31500000E907421B7F86030D31A3B64FB685B6A3B6227
S31500000EA0BB6A002B00F09D807B6F03F48073002BE0
S31500000EB040F097807B6ADA7DBB6A1A707B6A93F88A
S31500000EC00E21BB6A9A707B6A93F8D520BB6A5A706A
S31500000ED07B6AD3F8FC20BB6A5A607B6AD3F8002190
S31500000EE0BB6A9A607B6AD3F82C21BB6ADA607B6A9C
S31500000EF093F8E920BB6A83F829207B6AD3F8382166
S31500000F00BB6A1A617B6AD3F83421BB6A5A617B6A71
S31500000F1093F8E820BB6A83F828207B6AD3F8EC2094
S31500000F20BB6A9A617B6AD3F8F020BB6ADA617B6A96
S31500000F30D3F8F420BB6A1A627B6AD3F8F820BB6A3E
S31500000F405A627B6A93F8EA20BB6A83F82A207B6A96
S31500000F5093F8EB20BB6A83F82B207B6AD3F83C21FD
S31500000F60BB6ADA627B6AD3F84021BB6A1A637B6A82
S31500000F70D3F82421BB6A5A637B6AD3F85821BB6A2B
S31500000F809A637B6AD3F85C21BB6ADA637B6AB3F93E
S31500000F90A820BB6AA3F854207B6AB3F9AA20BB6ACF
S31500000FA0A3F856207B6AD3F8A020BB6ADA647B6A72
S31500000FB0D3F8A420BB6A1A657B6AD3F89820BB6A6B
S31500000FC05A647B6AD3F89C20BB6A9A647B6AD3F81E
S31500000FD0B020BB6ADA657B6AD3F8B420BB6A1A66AE
S31500000FE002E07B6ADB7D3B630321F86801F082FC4B
S31500000FF000220021F8680AF058F8FB6A002B04D09A
S315000010007B6AD3F868317B63D7E07B6AD3F87831A3
S3150000101023F03003FB61FB69422B00F2CD8001A275
S3150000102052F823F05B1100007911000099110000BD
S3150000103079110000791100003111000099110000AA
S3150000104079110000791100005B1100005B110000AE
S315000010505B1100005B1100005B1100005B110000DA
S315000010605B110000B9110000B9110000B9110000B0
S31500001070B9110000B9110000B9110000B911000042
S31500001080B9110000B9110000B9110000B911000032
S31500001090B9110000B9110000B9110000B911000022
S315000010A0B9110000B9110000B9110000B911000012
S315000010B0B9110000B9110000B9110000B911000002
S315000010C0B9110000B9110000B9110000B9110000F2
S315000010D0B9110000B9110000B9110000B9110000E2
S315000010E0B9110000B9110000B9110000B9110000D2
S315000010F0B9110000B9110000B9110000B9110000C2
S31500001100B9110000B9110000B9110000B9110000B1
S31500001110B9110000B9110000B9110000B9110000A1
S31500001120B911000099110000791100007911000031
S31500001130FB68D3F8803003F40013002B05D1092196
S31500001140F868FFF7EDFD0346F4E13B6A554AC3F83C
S315000011502C213B6A012283F8E9207B6AD3F86821B7
S315000011607B88B7F86010786AD0F86C0100FB01F153
S315000011700B4413447B6320E07B6AD3F868217B88A9
S31500001180B7F86010786AD0F86C0100FB01F10B44E7
S315000011905B0013447B6310E07B6AD3F868217B888D
S315000011A0B7F86010786AD0F86C0100FB01F10B44C7
S315000011B09B0013447B6300E000BF7B6F03F00F03CB
S315000011C01946F86809F092FEFB6A002B14D07B6A78
S315000011D0D3F86C117B6AD3F870017B6AD3F874314B
S315000011E07A6AD2F878210192009303460A46796B0F
S315000011F0F86809F0CDFB0DE07B6AD3F86C217B6AB9
S31500001200D3F8783101933B6C00937B6C796BF8686B
S3150000121009F0BEFB7B6F03F02003002B10D07B6F21
S3150000122003F08003002B05D04FF07F43FB630023C0
S31500001230BB630BE00023FB634FF07F43BB6305E01A
S315000012404FF07F43FB634FF07F43BB637B6F03F03D
S315000012501003002B15D07B6F03F04003002B0AD040
S315000012607B6A9B68FA6B1343FB637B6ADB68BA6B2A
S315000012701343BB631CE07B6A9B68BA6B1343BB6377
S3150000128016E07B6F03F04003002B0DD07B6A9B6852
S31500001290FA6B1343FB637B6ADB68BA6B1343BB636E
S315000012A006E000BF10000400BB6B63F07F43BB6326
S315000012B03B6AFA6BC3F858213B6ABA6BC3F85C21E8
S315000012C03B6A93F80E3143F00503DAB23B6A83F8C2
S315000012D00E214FF480337B654FF480333B6500234A
S315000012E0FB640023BB64BB681B01BB617B681B01FD
S315000012F07B61B7F86430102B0BD9BB691B04B7F8B8
S315000013006420B3FBF2F37B657B6DDA0F13445B104D
S31500001310FB64B7F96830102B0BDD7B691B04B7F84B
S315000013206820B3FBF2F33B653B6DDA0F13445B10A9
S31500001330BB647B6F03F40073002B07D07B6D5B42AD
S315000013407B65BB681A04FB6CD31AFB647B6F03F4E2
S315000013508063002B07D03B6D5B423B657B681A04BC
S31500001360BB6CD31ABB647B6F03F00403002B03D062
S31500001370FB6CA3F50043FB647B6F03F00803002BB3
S3150000138003D0BB6CA3F50043BB64FB6A002B0AD0F9
S315000013907B881B04FA6C1344FB64B7F860301B04AB
S315000013A0BA6C1344BB64B7F97020B7F96C103B6D87
S315000013B0049300230393002302937B6D0193BB6C7C
S315000013C00093FB6CF86809F029FEB7F97010B7F9BD
S315000013D06C20B7F968300193B7F9643000930B4677
S315000013E0396AF86800F0FAFABB6A002B00F09D80B3
S315000013F07B6F03F48073002B40F09780BB6A1A78EA
S315000014007B6ADA75BB6A9A787B6A83F80E21BB6AB7
S315000014105A787B6A83F8D520BB6A5A687B6AC3F818
S31500001420FC20BB6A9A687B6AC3F80021BB6ADA684B
S315000014307B6AC3F82C21BB6A93F829207B6A83F860
S31500001440E920BB6A1A697B6AC3F83821BB6A5A6904
S315000014507B6AC3F83421BB6A93F828207B6A83F839
S31500001460E820BB6A9A697B6AC3F8EC20BB6ADA6932
S315000014707B6AC3F8F020BB6A1A6A7B6AC3F8F42059
S31500001480BB6A5A6A7B6AC3F8F820BB6A93F82A20BB
S315000014907B6A83F8EA20BB6A93F82B207B6A83F881
S315000014A0EB20BB6ADA6A7B6AC3F83C21BB6A1A6B1B
S315000014B07B6AC3F84021BB6A5A6B7B6AC3F8242156
S315000014C0BB6A9A6B7B6AC3F85821BB6ADA6B7B6A84
S315000014D0C3F85C21BB6AB3F954207B6AA3F8A82041
S315000014E0BB6AB3F956207B6AA3F8AA20BB6ADA6CFA
S315000014F07B6AC3F8A020BB6A1A6D7B6AC3F8A42076
S31500001500BB6A5A6C7B6AC3F89820BB6A9A6C7B6A82
S31500001510C3F89C20BB6ADA6D7B6AC3F8B020BB6A4D
S315000015201A6E7B6AC3F8B42003E0396BF86801F0E1
S31500001530E1F9002318465837BD4680BD80B586B010
S3150000154000AFF860B9607A60FB68D3F8B8317B61A8
S31500001550FB68D3F8B83103F10802FB68C3F8B82179
S315000015607B69BA681A607B697A685A60FB68D3F847
S31500001570BC315A1EFB68C3F8BC21FB68D3F8BC31EA
S31500001580002B04DCFB68D3F8C031F868984700BF2D
S315000015901837BD4680BDFFFF80B58CB002AFF8603E
S315000015A0B96011461A460B46FB801346BB80B7F955
S315000015B03030002B03D0B7F93430002B01DC002388
S315000015C005E23B8E103B9BB23B86BB8E103B9BB22B
S315000015D0BB86FA883B8E13449BB27B83BA88BB8E4C
S315000015E013449BB23B83FB8823F00F031BB23B8261
S315000015F0BB8823F00F031BB27B827B8B0F339BB21E
S315000016001BB223F00F031BB2BB823B8B0F339BB283
S315000016101BB223F00F031BB2FB8207F1100319461E
S31500001620F8680BF051F80346002B01D10023CEE1F8
S31500001630B968F86808F022FBBB6893F8D53003F068
S315000016400203002B10D0FA887B8B13431BB29BB28C
S3150000165003F00F037B62BA883B8B13431BB29BB22A
S3150000166003F00F033B6203E000237B6200233B622F
S31500001670BB6893F8D53003F00103002B00F0978088
S31500001680B7F910301A46B7F90630D31A1A46BB68AE
S31500001690D3F8103102FB03F31A09BB68D3F81031F3
S315000016A013441A460421F868FFF748FFBB68D3F8CD
S315000016B010311A460A21F868FFF740FF0022102170
S315000016C0F868FFF73BFFB7F91A30B7F910209B1AF5
S315000016D01A46BB68D3F8103102FB03F31A09BB683C
S315000016E0D3F8103113441A460521F868FFF726FF90
S315000016F0BB68D3F810315B421A460B21F868FFF736
S315000017001DFF00221121F868FFF718FFB7F9123004
S315000017101A46B7F90430D31A1A46BB68D3F8103103
S3150000172002FB03F31A09BB68D3F8103113441A46B7
S315000017300621F868FFF702FF00220C21F868FFF780
S31500001740FDFEBB68D3F810311A461221F868FFF780
S31500001750F5FEB7F91830B7F912209B1A1A46BB687E
S31500001760D3F8103102FB03F31A09BB68D3F8103122
S3150000177013441A460721F868FFF7E0FE00220D2100
S31500001780F868FFF7DBFEBB68D3F810315B421A46F8
S315000017901321F868FFF7D2FE07F110020F2300931A
S315000017A00423B968F86804F05FFDF861F3E07B6A2A
S315000017B0002B48D13B6A002B0AD107F11002002307
S315000017C000930023B968F86804F04EFDF861E2E082
S315000017D0B7F912301A46B7F90430D31A1B0303F5CA
S315000017E080331A460421F868FFF7A8FE00220A2172
S315000017F0F868FFF7A3FE4FF480321021F868FFF770
S315000018009DFEB7F91830B7F912209B1A1B0303F592
S3150000181080331A460521F868FFF790FE00220B2157
S31500001820F868FFF78BFE6C4A1121F868FFF786FE11
S3150000183007F11002032300930223B968F86804F045
S3150000184013FDF861A7E03B6A002B3AD1B7F91030D7
S315000018501A46B7F90630D31A1B0303F580331A4626
S315000018600421F868FFF76AFE4FF480320A21F8680F
S31500001870FFF764FE00221021F868FFF75FFEB7F954
S315000018801A30B7F910209B1A1B0303F580331A464A
S315000018900521F868FFF752FE4F4A0B21F868FFF75B
S315000018A04DFE00221121F868FFF748FE07F11002ED
S315000018B0032300930223B968F86804F0D5FCF861A5
S315000018C069E0B7F910301A46B7F90630D31A1B0388
S315000018D003F580331A460421F868FFF72FFE4FF40C
S315000018E080320A21F868FFF729FE00221021F868E5
S315000018F0FFF724FEB7F91A30B7F910209B1A1B031D
S3150000190003F580331A460521F868FFF717FE324AB9
S315000019100B21F868FFF712FE00221121F868FFF785
S315000019200DFEB7F912301A46B7F90430D31A1B0365
S3150000193003F580331A460621F868FFF7FFFD0022FB
S315000019400C21F868FFF7FAFD4FF480321221F8688F
S31500001950FFF7F4FDB7F91830B7F912209B1A1B03ED
S3150000196003F580331A460721F868FFF7E7FD0022E2
S315000019700D21F868FFF7E2FD174A1321F868FFF713
S31500001980DDFD07F110020F2300930423B968F86800
S3150000199004F06AFCF86107F110020023B968F868E0
S315000019A007F0A5FA07F110020023B968F86809F0F4
S315000019B095FFFB691A460021F868FFF7BFFD07F19E
S315000019C0100300221946F86808F060FB0123184648
S315000019D02837BD4680BD00BF0000FFFF80B586B03A
S315000019E002AFF860B96011461A460B46FB801346F3
S315000019F0BB80B7F90410B7F90620B7F91C3001937C
S31500001A00B7F9183000930B46B968F868FFF7C4FDBC
S31500001A10034618461037BD4680BD80B586B002AF76
S31500001A20F860084611461A4603467B810B463B8101
S31500001A301346FB80FB68996AB7F90800B7F90A20D4
S31500001A40B7F918300193B7F9063000930346F868E2
S31500001A50FFF7A2FD002318461037BD4680BD80B5AE
S31500001A6086B002AFF860084611461A4603467B81E7
S31500001A700B463B811346FB80FB68D96AFB68B3F9CA
S31500001A806E309AB27B8913449BB218B2FB68B3F9E5
S31500001A9070309AB23B8913449BB21AB2B7F9183028
S31500001AA00193B7F90630009313460246F868FFF72C
S31500001AB073FD002318461037BD4680BD90B593B020
S31500001AC006AFF860084611461A4603467B810B4668
S31500001AD03B811346FB80FB68B3F86C30FB85FB68E3
S31500001AE0DB6ABB62B7F92E30002B40F3DF80B7F913
S31500001AF02E30DA0F13445B10FB84B7F92E30102B0F
S31500001B0012D0BB6A93F8D730012B6FD1BB6AB3F9F9
S31500001B10D830B7F92E209A4268DABB6A93F8D530E6
S31500001B2003F00103002B61D1FB68D96A7A89FB8D2A
S31500001B30D31A9BB218B23A89FB8DD31A9BB21CB248
S31500001B40FB8D5B009AB2B7F8403013449BB21BB2D0
S31500001B500193B7F92E30009323460246F868FFF743
S31500001B601BFDFB68D96A3A89FB8DD31A9BB218B262
S31500001B70B7F90A20B7F92E300193B7F9063000936A
S31500001B800346F868FFF708FDFB68D96A7A89FB887F
S31500001B9013449BB218B23A89FB8DD31A9BB21CB27E
S31500001BA0FB8D5B009AB2B7F8403013449BB21BB270
S31500001BB00193B7F92E30009323460246F868FFF7E3
S31500001BC0EBFCFB68D96A3A89B7F8403013449BB2FC
S31500001BD018B2B7F90A20B7F92E300193B7F90630D3
S31500001BE000930346F868FFF7D7FC5FE07A89FB8C21
S31500001BF0D31A9BB2083B9BB21BB2BB823A89FB8CC1
S31500001C00D31A9BB2083B9BB21BB2FB827A89FB8834
S31500001C1013449AB2FB8C13449BB2083B9BB21BB293
S31500001C203B833A89FB8CD31A9BB2083B9BB21BB20F
S31500001C307B837A89FB8813449AB2FB8C13449BB24C
S31500001C40083B9BB21BB2BB833A89B7F840301344BA
S31500001C509AB2FB8C13449BB2083B9BB21BB2FB832C
S31500001C607A89FB8CD31A9BB2083B9BB21BB23B848E
S31500001C703A89B7F8403013449AB2FB8C13449BB2AE
S31500001C80083B9BB21BB27B8407F11402002304932A
S31500001C900023039304230293B7F92E300193042300
S31500001CA000930023B96AF86807F080F90023184604
S31500001CB03437BD4690BD90B587B002AFF860084690
S31500001CC011461A4603467B810B463B811346FB8031
S31500001CD0B7F90600B7F90820B7F90A10B7F92030A6
S31500001CE000930346F868FFF7E9FEF86807F048FE38
S31500001CF0FB68996A7B89103B9BB218B23B89103B03
S31500001D009BB21CB2FB8820339BB21BB23A8C2032AA
S31500001D1092B212B20192009323460246F868FFF788
S31500001D203BFCF86807F072FE002318461437BD46E0
S31500001D3090BD80B586B002AFF860084611461A46D7
S31500001D4003467B810B463B811346FB80FB68D96AC1
S31500001D50FB68B3F96E309AB27B8913449BB218B212
S31500001D60FB68B3F970309AB23B8913449BB21AB23E
S31500001D70B7F918300193B7F90630009313460246B7
S31500001D80F868FFF709FCF86807F0FAFDFB68996A3E
S31500001D90B7F90800B7F90A20B7F918300193B7F96F
S31500001DA0063000930346F868FFF7F6FBF86807F07D
S31500001DB02DFE002318461037BD4680BD80B586B07F
S31500001DC000AFF860B9607A60FB68D3F8B8317B6120
S31500001DD0FB68D3F8B83103F10802FB68C3F8B821F1
S31500001DE07B69BA681A607B697A685A60FB68D3F8BF
S31500001DF0BC315A1EFB68C3F8BC21FB68D3F8BC3162
S31500001E00002B04DCFB68D3F8C031F868984700BFA4
S31500001E101837BD4680BDFFFF80B592B006AFF860AB
S31500001E20B96011461A460B46FB801346BB80002359
S31500001E307B62B7F93C30002B41DDB7F93C30DA0F55
S31500001E4013445B107B847A8C3B8F13449BB23B8498
S31500001E50FA883B8CD31A9BB21BB223F00F031BB23A
S31500001E60BB82BA883B8CD31A9BB21BB223F00F03FA
S31500001E701BB2FB82FA883B8C13449BB20F339BB296
S31500001E801BB223F00F031BB23B83BA883B8C13446F
S31500001E909BB20F339BB21BB223F00F031BB27B83A3
S31500001EA0B7F93820B7F92230D31A082B2FDC3A8F2E
S31500001EB07B8C13449BB23B870023BB8727E0FA88C1
S31500001EC03B8FD31A9BB21BB223F00F031BB2BB820C
S31500001ED0BA883B8FD31A9BB21BB223F00F031BB2F7
S31500001EE0FB82FA883B8F13449BB20F339BB21BB223
S31500001EF023F00F031BB23B83BA883B8F13449BB27C
S31500001F000F339BB21BB223F00F031BB27B83BB685C
S31500001F10B3F9DA30002B63DDBB68B3F9DA307B62E4
S31500001F20B7F914301A467B6AD31AFA68B2F97220E6
S31500001F30934204DAFB68B3F97230BB8208E0B7F962
S31500001F4014309AB27B6A9BB2D31A9BB21BB2BB8285
S31500001F50B7F916301A467B6AD31AFA68B2F97420B2
S31500001F60934204DAFB68B3F97430FB8208E0B7F9F0
S31500001F7016309AB27B6A9BB2D31A9BB21BB2FB8213
S31500001F80B7F918301A467B6A1344FA68B2F9762014
S31500001F90934204DDFB68B3F976303B8308E0B7F97A
S31500001FA018309AB27B6A9BB213449BB21BB23B8336
S31500001FB0B7F91A301A467B6A1344FA68B2F97820E0
S31500001FC0934204DDFB68B3F978307B8308E0B7F908
S31500001FD01A309AB27B6A9BB213449BB21BB27B83C4
S31500001FE007F114031946F8680AF06EFB0346002B46
S31500001FF001D1002327E1FA88B7F914309BB2D31A2E
S315000020009BB2FB80BA88B7F916309BB2D31A9BB243
S31500002010BB80B968F86807F031FEBB68D3F8283191
S31500002020FB61B7F93C30002B43D1B7F906200123F9
S3150000203004930023039300230293B7F938300193E6
S31500002040B7F90430009313460022B968F86800F027
S3150000205083FFFB6903F4007343F4400343F0410339
S31500002060BB62FB68D3F8803003F08063002B08D096
S31500002070BB6893F8D5301B0603F08073BA6A134326
S31500002080BB6207F11402BB6A00930223B968F868C1
S3150000209004F0EAF8B862BB6A1A460021F868FFF74E
S315000020A08DFEB7F938207B6A13440F331B09FB6298
S315000020B0B3E0B7F93820B7F93C30B7F93C1001FB6B
S315000020C003F39A4247DDBB6893F8D53003F001036A
S315000020D0002B40D13B8F01339BB23B87B7F93C3095
S315000020E01033DA0F13445B101B03B7F906200121E6
S315000020F00491002103910293B7F938300193B7F99F
S315000021000430009313460022B968F86800F024FFF3
S31500002110FB6903F4007343F4004343F04103BB62DD
S3150000212007F11402BB6A00930223B968F86804F049
S315000021309BF8B862B7F93C301B031A461621F868BB
S31500002140FFF73CFEBB6A1A460021F868FFF736FE29
S315000021500023FB6261E0B7F93C30DA0F13445B10F1
S315000021601BB29AB23B8F13449BB21BB2B7F906203F
S315000021700121049100210391002102910193B7F9F5
S315000021800430009313460022B968F86800F0E4FEB4
S315000021903A8FB7F93C30D90F0B445B101BB29BB298
S315000021A0D31A9BB21BB2B7F9062001210491012173
S315000021B00391274902910193B7F90430009313461E
S315000021C00222B968F86800F0C7FEFB6903F42063D1
S315000021D043F0C503BB62FB68D3F8803003F080632D
S315000021E0002B08D0BB6893F8D5301B0603F080732C
S315000021F0BA6A1343BB6207F11402BB6A0093042355
S31500002200B968F86804F030F8B862BB6A1A4600216B
S31500002210F868FFF7D3FD0023FB6207F114020023E1
S31500002220B968F86806F063FE07F114020023B9687E
S31500002230F86809F053FB07F11403FA6A1946F868BF
S3150000224007F024FF012318463037BD4680BD00BF86
S315000022500080FFFF80B586B002AFF86008461146E1
S315000022601A4603467B810B463B811346FB80FB687F
S31500002270996AB7F90800B7F90A20B7F91830019337
S31500002280B7F9063000930346F868FFF7C5FD00234B
S3150000229018461037BD4680BD80B586B002AFF860DF
S315000022A0084611461A4603467B810B463B81134678
S315000022B0FB80FB68D96AFB68B3F96E309AB27B89FA
S315000022C013449BB218B2FB68B3F970309AB23B89DB
S315000022D013449BB21AB2B7F918300193B7F9063016
S315000022E0009313460246F868FFF796FD002318464A
S315000022F01037BD4680BD90B589B002AFF86008467C
S3150000230011461A4603467B810B463B811346FB80EA
S31500002310FB68B3F86C30FB82B7F91630002B01DC92
S3150000232000234CE0B7F92830002B23DDFB68D86A80
S31500002330FA88B7F92830D90F0B445B101BB29BB251
S31500002340D31A9AB2B7F91630D90F0B445B101BB2E9
S315000023509BB2D31A9BB21BB2B7F90840B7F90A1061
S31500002360B7F916200192009323460A460146F868FB
S31500002370FFF752FDFB68D86AB7F92830DA0F134425
S315000023805B101BB29AB2FB8813449AB2B7F91630A7
S31500002390D90F0B445B101BB29BB213449BB21BB20A
S315000023A0B7F90840B7F90A10B7F916200192009359
S315000023B023460A460146F868FFF72EFD0023184615
S315000023C01C37BD4690BD90B589B002AFF86008468F
S315000023D011461A4603467B810B463B811346FB801A
S315000023E0FB68B3F86C30FB82B7F92830002B18DD98
S315000023F0B7F91630002B14DDFB68D96AFB8A5B003F
S315000024009AB23B8D13449BB21BB2B7F90800B7F9D9
S315000024100A200193B7F9063000930346F868FFF7E0
S31500002420FBFCB7F92830002B1FD1B7F91630002B6B
S315000024301BDDFB68D96AB7F91630103BDA0F134477
S315000024405B109AB2FB8813449BB21BB2FA8A08321D
S3150000245092B212B2B7F90840B7F90A000192009396
S3150000246023460246F868FFF7D7FCF86807F088FAB3
S31500002470FB68996AB7F90800B7F90A20B7F9283056
S315000024800193B7F9063000930346F868FFF7C4FCDA
S31500002490F86807F0BBFA002318461C37BD4690BD06
S315000024A080B586B002AFF860084611461A46034664
S315000024B07B810B463B811346FB80FB68D96AFB6830
S315000024C0B3F96E309AB27B8913449BB218B2FB689B
S315000024D0B3F970309AB23B8913449BB21AB2B7F97A
S315000024E018300193B7F90630009313460246F86890
S315000024F0FFF792FCF86807F043FAFB68996AB7F9A8
S315000025000800B7F90A20B7F918300193B7F9063071
S3150000251000930346F868FFF77FFCF86807F076FA41
S31500002520002318461037BD4680BD80B483B000AF87
S31500002530786039603B685AB27B6883F8C6213B688D
S3150000254018460C37BD465DF8047B704780B584B0ED
S3150000255000AF78604FF4BE7006F0E8FAF860FB68EA
S31500002560002B05D101217868FFF7DFFF002358E132
S31500002570FB687A685A60FB686FF07F429A60FB6876
S315000025806FF07F42DA60FB68FF229A74FB68FF22D5
S31500002590DA74FB684FF07F42C3F84C21FB68FF22D8
S315000025A01A74FB68FF225A74FB684FF07F42C3F827
S315000025B05021FB684FF07F42C3F85421FB6802228A
S315000025C083F8D520FB680022C3F82821FB68002287
S315000025D083F80E21FB6810229A82FB684FF4803242
S315000025E0C3F81021FB684FF4B052C3F81C217B6876
S315000025F0D3F8803003F00063002B05D1FB684FF45D
S315000026008002C3F820210BE0FB68884AC3F820212A
S31500002610FB68D3F8203143F48002FB68C3F820211D
S31500002620FB684FF47032C3F83421FB68042283F848
S31500002630E920FB684FF40022C3F82C21FB68002236
S31500002640C3F83C21FB680022C3F84021FB68002246
S31500002650C3F844217B685A6DFB68D3F820311A43CE
S31500002660FB68D3F81C311A43FB68D3F82C311A43A4
S31500002670FB68D3F83C311A43FB68D3F840311A4360
S31500002680FB68D3F844311A43FB68C3F82421FB687E
S3150000269000225A76FB6801229A75FB680022DA75D9
S315000026A0FB6800221A76FB68AA22C3F81421FB688D
S315000026B0AA22C3F8C420FB68012283F8D420FB6851
S315000026C04FF48032C3F83021FB680022C3F8CC20D7
S315000026D0FB681022C3F8D020FB684FF48032C3F8A1
S315000026E01821FB680422C3F8C820FB68012283F87E
S315000026F0D620FB68012283F8D720FB684022A3F886
S31500002700D820FB680022A3F8DA20FB68002283F8B1
S315000027100F21FB680022C3F8FC20FB680022C3F8E7
S315000027200021FB680022C3F80421FB680022C3F8DD
S315000027300821FB68012283F80C21FB68002283F83C
S315000027400D21FB680022C3F84821FB681C3318469C
S3150000275003F0BDFCFB683433184603F0B8FCFB6895
S315000027604C33184603F0B3FCFB686433184603F099
S31500002770AEFCFB687C33184603F0A9FCFB68943377
S31500002780184603F0A4FCFB68AC33184603F09FFC24
S31500002790FB680C2283F8E820FB684FF0FF32C3F891
S315000027A03821FB68002283F8DC20FB68002283F8CE
S315000027B0DD20FB68002283F8DE20FB68002283F818
S315000027C0DF20FB68FF2283F8E020FB68FF2283F806
S315000027D0E120FB68FF2283F8E220FB68FF2283F8F2
S315000027E0E320FB68012283F8E420FB68032283F8D8
S315000027F0E520FB68032283F8E620FB68032283F8C2
S31500002800E720F968786808F00DFE7B68DA69FB68EE
S315000028101A607B68FA68DA6100217868FFF785FE3E
S31500002820FB6818461037BD4680BD00BF0800002073
S3150000283080B584B000AF786039607B681B6A3A68FF
S315000028409A4205D107217868FFF76FFE03464DE0EF
S315000028507B681C33FB6002E0FB681B68FB60FB685F
S31500002860002B04D0FB681B683A689A42F4D1FB68D7
S31500002870002B05D103217868FFF757FE034635E0A4
S315000028803B681A68FB681A607B685B6A3A689A421A
S3150000289003D17B681A6A7B685A627B68DB6A3A688E
S315000028A09A4203D17B681A6A7B68DA627B689B6A04
S315000028B03A689A4203D17B681A6A7B689A623B68D7
S315000028C0D3F80831002B09D03B68D3F808311846F5
S315000028D00BF018FB3B680022C3F80821386806F0A5
S315000028E031F900217868FFF720FE034618461037B5
S315000028F0BD4680BD80B584B000AF786039607B6826
S315000029005B6AFB603B68DAB2FB68DA75FB6893F8D2
S315000029100E3143F00103DAB2FB6883F80E213B68FF
S31500002920032B3CD801A252F823F000BF3D2900003A
S3150000293051290000652900008B290000FB6893F8E7
S31500002940D53023F00C03DAB2FB6883F8D52027E0F4
S31500002950FB6893F8D53023F00C03DAB2FB6883F8F2
S31500002960D5201DE0FB6893F8D53043F00403DAB2B6
S31500002970FB6883F8D520FB6893F8D53023F008036D
S31500002980DAB2FB6883F8D5200AE0FB6893F8D53005
S3150000299043F00C03DAB2FB6883F8D52000E000BFF1
S315000029A000217868FFF7C1FD034618461037BD467B
S315000029B080BD00BF80B584B000AFF860B9607A60B2
S315000029C0FB685B6A7A6822F07F41BA68023243F894
S315000029D02210FB685B6A93F80E21FB685B6A42F083
S315000029E00102D2B283F80E210021F868FFF79DFD9F
S315000029F0034618461037BD4680BD80B584B000AF8B
S31500002A0078600B46FB707B685B6AFB60FB6893F83B
S31500002A100E3143F00103DAB2FB6883F80E21FB683E
S31500002A209B7CFA789A4208D0FB6893F80E3143F003
S31500002A300603DAB2FB6883F80E21FB68FA789A740B
S31500002A40FB689B7D03F00103002B04D0FB781A067C
S31500002A50FB68C3F84C2100217868FFF766FD034642
S31500002A6018461037BD4680BD80B586B000AFF86009
S31500002A70B9607A60FB685B6A3B613B6993F80E312B
S31500002A8043F00103DAB23B6983F80E2100237B6130
S31500002A90BB68032B19D801A252F823F0AD2A000017
S31500002AA0D72A0000B72A0000C12A00007B6943F438
S31500002AB000637B6110E07B6943F400737B610BE08C
S31500002AC07B6943F420637B6106E01021F868FFF719
S31500002AD02CFD03464AE000BF7B68032B19D801A2F0
S31500002AE052F823F0F52A00001F2B0000FF2A0000F1
S31500002AF0092B00007B6943F480537B6110E07B69FE
S31500002B0043F480637B610BE07B6943F4A0537B61F4
S31500002B1006E01021F868FFF708FD034626E000BF2F
S31500002B203B697A69C3F81C21FB685A6D3B69D3F887
S31500002B301C311A433B69D3F82C311A433B69D3F84D
S31500002B4020311A433B69D3F83C311A433B69D3F829
S31500002B5040311A433B69D3F844311A433B69C3F801
S31500002B6024210021F868FFF7E0FC034618461837D1
S31500002B70BD4680BD80B586B000AFF860B9607A60AA
S31500002B80FB685B6A3B613B6993F80E3143F00103D6
S31500002B90DAB23B6983F80E213B6900221A76FB689C
S31500002BA0D3F8803003F00063002B1ED14FF480036E
S31500002BB07B61BB68012B07D17B68002B04D17B6945
S31500002BC023F400037B6163E0BB68002B07D17B68BD
S31500002BD0012B04D17B6943F400037B6158E010218B
S31500002BE0F868FFF7A2FC034678E008237B617B695F
S31500002BF043F480037B61BB68032B1CD801A252F807
S31500002C0023F000BF152C0000432C00001F2C0000F1
S31500002C10292C00007B6943F080537B6112E07B69BD
S31500002C2043F040037B610DE07B6943F0805343F042
S31500002C3040037B6106E01021F868FFF776FC034647
S31500002C404CE000BF7B68032B1BD801A252F823F08F
S31500002C50612C00008F2C00006B2C0000752C0000EE
S31500002C607B6943F000537B6112E07B6943F080038C
S31500002C707B610DE07B6943F0005343F080037B6189
S31500002C8006E01021F868FFF750FC034626E000BF77
S31500002C903B697A69C3F82021FB685A6D3B69D3F812
S31500002CA01C311A433B69D3F82C311A433B69D3F8DC
S31500002CB020311A433B69D3F83C311A433B69D3F8B8
S31500002CC040311A433B69D3F844311A433B69C3F890
S31500002CD024210021F868FFF728FC03461846183718
S31500002CE0BD4680BD80B584B000AF786039607B6832
S31500002CF05B6AFB603B68002B0DD0FB6893F8D53010
S31500002D0043F00203DAB2FB6883F8D520FB680022A1
S31500002D10C3F828211EE0FB6893F8D53023F00203A0
S31500002D20DAB2FB6883F8D520FB684FF4FC42C3F89F
S31500002D302821FB684FF48032C3F81021FB6893F812
S31500002D40D53023F00103DAB2FB6883F8D520FB689F
S31500002D5010229A8200217868FFF7E7FB034618469F
S31500002D601037BD4680BD80B584B000AF786039604D
S31500002D707B685B6AFB603B68DAB2FB6883F8D62047
S31500002D803B68022B04D1FB68032283F80F2103E082
S31500002D90FB68002283F80F2100217868FFF7C5FB46
S31500002DA0034618461037BD4680BD80B584B000AFD7
S31500002DB0786039607B685B6AFB603B68DAB2FB6807
S31500002DC083F8D72000217868FFF7AFFB0346184643
S31500002DD01037BD4680BD80B586B000AFF860B960DB
S31500002DE011461A460B46FB801346BB80FB68002B38
S31500002DF049D0FB68596ABB685A1C13465B001344EA
S31500002E00DB000B4404337B613A6A7B6A1343002B75
S31500002E100FD1FB685B6A597E0122BB6802FA03F395
S31500002E20DBB2DB43DAB2FB685B6A0A40D2B25A769F
S31500002E3023E0BB6A43F001027B691A607B69FA886A
S31500002E409A827B69BA88DA827B693A6A5A607B69B8
S31500002E507A6A9A607B690022DA607B6900221A61CD
S31500002E60FB685B6A597E0122BB6802FA03F3DAB299
S31500002E70FB685B6A0A43D2B25A760021F868FFF70C
S31500002E8054FB034600E0022318461837BD4680BDB2
S31500002E9080B485B000AF78607B68D3F84C311B0AEC
S31500002EA0FB607B681B7C1A46FB6802FB03F303F19D
S31500002EB0FF1303F57F4303F07F427B68C3F850217D
S31500002EC07B685B7C1A46FB6802FB03F303F1FF1386
S31500002ED003F57F4303F07F427B68C3F854217B6888
S31500002EE093F80E3123F00203DAB27B6883F80E21E1
S31500002EF000BF1437BD465DF8047B704780B586B0C9
S31500002F0000AFF860B9607A60FB68D3F8B8317B61CE
S31500002F10FB68D3F8B83103F10802FB68C3F8B8219F
S31500002F207B69BA681A607B697A685A60FB68D3F86D
S31500002F30BC315A1EFB68C3F8BC21FB68D3F8BC3110
S31500002F40002B04DCFB68D3F8C031F868984700BF53
S31500002F501837BD4680BDFFFF2DE9B04FBCB000AFAE
S31500002F60C7F8A400C7F8A010C7F89C20A7F89A30A5
S31500002F70B7F89A20B7F81431D31A9BB2A7F8DE3007
S31500002F80B7F81021B7F81431D31A9BB2A7F8DC3082
S31500002F90D7F8A03093F8D53003F00103002B00F0EA
S31500002FA02482D7F82031002B08D0D7F8A430D3F8E4
S31500002FB0803003F08063002B40F05181D7F8A030B9
S31500002FC09B8AA7F8C630D7F8A030D3F81031C7F8D7
S31500002FD0C030B7F91421B7F9C63003FB02F24FF03F
S31500002FE0784393FBF2F3C7F8E030B7F91431DA17F8
S31500002FF03B677A67D7E91C234FF078404FF0FF31E3
S3150000300038F042FB02460B464FF000004FF000013D
S31500003010190241EA12611002B7F9C630DA17BB6627
S31500003020FA66D7E91A2338F02FFB02460B46C7E9A2
S315000030302C23B7F9DE20B7F9DE3003FB02F1B7F92E
S31500003040DC20B7F9DC3002FB03F30B44002B00DA7B
S31500003050FF331B121A46D7F8E03002FB03F3002BAE
S3150000306000DA0F331B111846B7F91421D30F134496
S315000030705B101BB21946B7F9DE20B7F9DC301344F2
S31500003080CA18D7F8C03002FB03F3002B00DA0F335F
S315000030901B115B420344C7F8E430B7F9DE20B7F9E9
S315000030A0DE3003FB02F1B7F9DC20B7F9DC3002FBB6
S315000030B003F30B44002B00DAFF331B12DA173B66CF
S315000030C07A66D7F8B030D7E918452A4602FB03F2EC
S315000030D0D7F8B430214601FB03F31A44D7F8B030D1
S315000030E02146A3FB0131C7F89410C7F89030D7F8F2
S315000030F09430D318C7F89430D7E92423002B07DA85
S3150000310012F10F01B96243F10003FB62D7E90A230A
S315000031104FF000004FF00001100940EA037019114A
S31500003120B7F91421D30F13445B101BB21C46B7F931
S31500003130DE20B7F9DC3013442344DA17BB65FA65A1
S31500003140D7F8C03000223B657A65D7E916894B4629
S31500003150D7E914AB524602FB03F25B46444604FB36
S3150000316003F3134442465446A2FB0424C7F88C409A
S31500003170C7F88820D7F88C201344C7F88C304FF056
S3150000318000024FF00003D7E922894C46230144464A
S3150000319043EA147344462201841A3C6261EB03033A
S315000031A07B62D7E90834C7E92A34D7E92A23002BFA
S315000031B007DA12F1FF01B96143F10003FB61D7E9B8
S315000031C006234FF000004FF00001100A40EA0360AA
S315000031D0191202460B461346C7F8E430D7F8E0301A
S315000031E0002B00DA0F331B11C7F8E030D7E92C2388
S315000031F0002B08DA40F6FF715118396143F10003DC
S315000032007B61D7E904234FF000004FF00001100B5B
S3150000321040EA0350191302460B461346C7F8E0303E
S31500003220B7F99A30C3F108035B00D7F8E02002FB38
S3150000323003F3002B00DA0F331B11C7F8EC30B7F994
S315000032401031C3F108035B00D7F8E02002FB03F35B
S31500003250002B00DA0F331B11C7F8E8305DE1D7F811
S31500003260A0309B8AA7F8C630D7F8A030D3F8103123
S31500003270C7F8C030B7F914214FF0784393FBF2F347
S315000032809A01B7F9C63092FBF3F3C7F8E030B7F905
S31500003290DE20B7F9DE3003FB02F1B7F9DC20B7F91F
S315000032A0DC3002FB03F30B44002B00DAFF331B1266
S315000032B0DA17BB64FA64D7F8E030DA173B647A644D
S315000032C0D7E912452B46D7E91089424602FB03F29D
S315000032D04B46214601FB03F3134422464146A2FB1B
S315000032E00121C7F88410C7F88020D7F8842013443A
S315000032F0C7F88430D7E92023002B07DA12F10F0133
S31500003300B96043F10003FB60D7E902234FF00000E8
S315000033104FF00001100940EA03701911B7F9143192
S31500003320DA0F13445B101BB21C46B7F9DE20B7F95F
S31500003330DC3013442344DA17BB63FA63D7F8C03092
S3150000334000223B637A63D7E90E894B46D7E90CAB7B
S31500003350524602FB03F25B46444604FB03F3134466
S3150000336042465446A2FB0424FC67BA67FA6F13442C
S31500003370FB674FF000024FF00003D7E91E894C4669
S31500003380A300444643EA94734446A200841A3C6070
S3150000339061EB03037B60D7E90034C7E92E34D7F825
S315000033A0E0301B11C7F8E030B7F99A30C3F10803D3
S315000033B0D7F8E02002FB03F3002B00DA0733DB101B
S315000033C0C7F8EC30B7F91031C3F10803D7F8E0209D
S315000033D002FB03F3002B00DA0733DB10C7F8E830F3
S315000033E0D7F8B830C7F8E43097E0B7F8DE20B7F87A
S315000033F0DC3013431BB2002B22D1B7F914318A4AB1
S3150000340092FBF3F3C7F8E030B7F9142113465B05D6
S315000034109B1ADB02C7F8E430B7F91431C3F108038D
S315000034205B00D7F8E02002FB03F3002B00DA0F3332
S315000034301B11C7F8E830D7F8E830C7F8EC306CE075
S31500003440B7F91431794A92FBF3F3C7F8E030B7F9CC
S31500003450DE30B7F9DE2002FB03F3C7F8D830B7F940
S31500003460DC30B7F9DC2002FB03F3C7F8D430D7F819
S31500003470D820D7F8D4301344DA179A469346D7F8AB
S31500003480E030DA179846914608FB0BF20AFB09F37F
S315000034901344AAFB08452B441D464FF000024FF08B
S315000034A00003E20A42EA4552EB12C7E93223D7F893
S315000034B0C820B7F91431D90F0B445B101BB218465C
S315000034C0B7F9DE10B7F9DC300B4403441B03D31AFB
S315000034D0C7F8E430D7F8E030DB10C7F8E030B7F9CA
S315000034E09A30C3F108035B00D7F8E02002FB03F330
S315000034F0002B00DA0F331B11C7F8EC30B7F9103187
S31500003500C3F108035B00D7F8E02002FB03F3002BAE
S3150000351000DA0F331B11C7F8E830D7F81C31002B3F
S3150000352039D1D7F89C30191DD7F8E420D7F81831CF
S3150000353013441A46D7F8A400FFF7E0FCD7F89C30EE
S315000035400533D7F8EC201946D7F8A400FFF7D6FCC8
S31500003550D7F89C301033D7F8E8201946D7F8A400DE
S31500003560FFF7CCFCD7F89C3003F10B01D7F8E0301D
S315000035705B001A46D7F8A400FFF7C0FCD7F89C30CA
S3150000358003F11101D7F8E0305B001A46D7F8A40022
S31500003590FFF7B4FC42E0D7F89C30191DD7F8E430A9
S315000035A05A42D7F81831D31A1A46D7F8A400FFF7AB
S315000035B0A5FCD7F89C30591DD7F8EC305B421A466B
S315000035C0D7F8A400FFF79AFCD7F89C3003F1100156
S315000035D0D7F8E8305B421A46D7F8A400FFF78EFC0E
S315000035E0D7F89C3003F10B01D7F8E0201346DB0730
S315000035F09B1A5B001A46D7F8A400FFF77FFCD7F8A2
S315000036009C3003F11101D7F8E0201346DB079B1A23
S315000036105B001A46D7F8A400FFF770FC00BFF0372E
S31500003620BD46BDE8B08F00BF0000F8FF0000C0FF38
S3150000363080B485B000AF786039607B681B690F4A3B
S315000036401A607B681B693A685A607B681B69043399
S31500003650FB607B689B68FA68DA607B681B6903F12C
S3150000366008027B681A617B6800229A61FB6818462B
S315000036701437BD465DF8047B704700BF32808080FA
S3150000368080B584B000AF786039607B689B69FB6069
S315000036907B681B69BB60FB68032B6DD801A252F8DF
S315000036A023F000BFB5360000CB360000053700001A
S315000036B03F3700003B681B0243F0FF02BB681A60FD
S315000036C0BB681A1D7B681A6157E0BB681B68DAB2D3
S315000036D0BB681A60BB681B6843F0802343F4000391
S315000036E0BA6813603B681B0243F0FF031946BA68C9
S315000036F0FB689B0013445960BB6803F10C027B68AE
S315000037001A613AE0BB681B689AB2BB681A60BB686C
S315000037101B6843F0004343F40003BA6813603B6838
S315000037201B0243F0FF031946BA68FB689B0013446B
S315000037305960BB6803F110027B681A611DE0BB6823
S315000037401B6823F07F42BB681A60BB681B6843F0A6
S315000037500042BB681A603B681B0243F0FF03194630
S31500003760BA68FB689B00134459607B681B6903F1C8
S3150000377014027B681A6100E000BF7B6800229A6130
S315000037807B68DB695A1E7B68DA613B6803F00103DC
S31500003790002B06D17B68DB69012B02D8786800F024
S315000037A02EFA00BF1037BD4680BD00BF80B483B07F
S315000037B000AF786039603B685AB27B6883F8C621EF
S315000037C03B6818460C37BD465DF8047B704780B5EC
S315000037D084B000AF786039607B689B69FB60142019
S315000037E005F0A4F9B860BB68002B01D100235FE0A7
S315000037F0BB683A689A60BB680022DA607B689B6E99
S3150000380003F00103002B0CD13A6813469B001344C6
S315000038109B001946786805F00AFA0246BB685A60AA
S315000038200AE03A6813469B0013449B00184605F0CD
S315000038307DF90246BB685A60BB685B68002B04D101
S31500003840B86805F07FF9002332E0BB6800221A61F0
S315000038507B689B6E03F00103002B25D17B68D3F8B0
S31500003860843003F01003002B09D0BB685B6819464F
S31500003870F8680AF083FB0246BB681A6114E07B68AD
S31500003880D3F8843003F00203002B0DD0BB689A688E
S3150000389013469B0013449B001A460421F8680AF05D
S315000038A047FB0246BB681A61BB6800221A60BB6808
S315000038B018461037BD4680BD80B584B000AF78602D
S315000038C039607B689B69FB602BE03B681B68BB60CB
S315000038D07B689B6E03F00103002B06D13B685B6897
S315000038E01946786805F0D5F904E03B685B68184628
S315000038F005F028F93B681B69002B0DD07B68D3F8CF
S31500003900843003F00203002B06D03B681B691A467D
S315000039100421F8680AF01AFB386805F013F9BB6849
S315000039203B603B68002BD0D100BF00BF1037BD46BF
S3150000393080BD80B584B000AF78607B689B681B68EB
S31500003940FB60FB68002B15D17B681A687B681B6AD5
S3150000395019461046FFF73BFFF860FB68002B05D1C0
S315000039607B681B68152283F8C72111E07B689B687A
S31500003970FA681A60FB680022DA60FB685A687B689E
S315000039801A61FB689A687B68DA617B68FA689A60F4
S315000039901037BD4680BD90B589B000AFF860B960FC
S315000039A07A60BB68FA681A60BB6800225A61FB68D5
S315000039B0DB6F002B70D0FB68DB6F7B617B691A685D
S315000039C0BB685A60202005F0B1F80246BB685A6110
S315000039D0BB685B69002B01D10023BDE0BB685B6956
S315000039E03B617B699B689B00184605F09FF8024681
S315000039F03B691A603B691B68002B01D10023ABE0D1
S31500003A007B699A683B695A607B695B68FA68D2F899
S31500003A10882003FB02F23B699A607B695A683B691E
S31500003A205A610023BB6109E03B691A68BB699B00C8
S31500003A30134400221A60BB690133BB613B695B68B2
S31500003A40BA699A42F0D33B691A683B69DA60FB6847
S31500003A5098693B699A6813469B0013449B001A4673
S31500003A603B691C6804210AF063FA034623603B693C
S31500003A701B681B68002B01D100236DE03B691B68A6
S31500003A801A683B691A613B695A683B69DA613B69A6
S31500003A905A693B699A6106E07968F868FFF797FE0C
S31500003AA00246BB685A60BB685A68BB68DA60BB6886
S31500003AB05B68002B01D100234EE0BB685A68BB68E7
S31500003AC09A60BB685B685A68BB681A61BB685B68CA
S31500003AD09A68BB68DA61BB6800229A61BB680022FB
S31500003AE09A62BB680022DA62BB6810229A8640207E
S31500003AF005F01CF80246BB681A63BB681B6B002BFB
S31500003B0001D1002328E0BB685B69002B05D0BB68A8
S31500003B105B691B681B68FB6114E0FB68D3F88430A3
S31500003B2003F01203002B09D0BB685B681B69002BEE
S31500003B3004D0BB685B681B69FB6103E0BB685B681C
S31500003B405B68FB61B968F86800F099FEFA69B968C4
S31500003B50F86800F0B8FE012318462437BD4690BD2C
S31500003B6080B584B000AF78607B685B69002B30D08D
S31500003B707B681B689B69BB600023FB6017E07B6862
S31500003B805B691A68FB689B0013441B68002B0BD00B
S31500003B907B685B691A68FB689B0013441B681A46BE
S31500003BA00421B8680AF0D2F9FB680133FB607B6830
S31500003BB05B695B68FA689A42E1D37B685B691B685C
S31500003BC0184604F0BFFF7B685B69184604F0BAFF2D
S31500003BD007E07B681A687B685B6819461046FFF742
S31500003BE06BFE7B681B6B002B05D07B681B6B184636
S31500003BF004F0A8FF00BF00BF1037BD4680BD80B5EA
S31500003C008EB002AF78607B685B69BB62BB6A002BD3
S31500003C1023D100217868FFF70BFDF860032178684F
S31500003C20FFF72EFD7868FFF784FE7B681B6893F923
S31500003C30C731002B0AD07B681B69A3F10C027B6895
S31500003C401A6103217868FFF71BFDE2E07B689B6839
S31500003C505B681A46FB681A60DBE07B68DB69002B51
S31500003C6004D0BB6A9B69012B40F0D3807B681B683C
S31500003C709B697B62BB6A9B69012B4BD97B689B68FE
S31500003C80BB61BB695968BB699A6813469B001344BC
S31500003C909B000B447B617B681B69FB62BB6A1969ED
S31500003CA0BB699A6813469B0013449B000B443B6117
S31500003CB0BB69DB68002B0ED0BB69DB683A691A600A
S31500003CC0BB690022DA6006E0FB6A4FF080321A60B8
S31500003CD0FB6A0433FB62FA6A7B699A42F4D3BB6AD5
S31500003CE01969BB695868BB699A6813469B001344F7
S31500003CF09B001A461023009313460246786A0AF080
S31500003D0055F9BB6A3A691A61BB6A9B695A1EBB6A56
S31500003D109A6176E0BB6ADB69012B65D97B689B6893
S31500003D203B62BB6ADB680433FB61BB6ADB695A1E14
S31500003D30BB6ADA61FB691B68002B16D1BB6A9A68FD
S31500003D4013469B0013449B001A460421786A0AF026
S31500003D50EFF80246FB691A60FB691B68002B04D169
S31500003D607B681B68012283F8C721FB691B68002B4F
S31500003D7012D03B6ADB68002B08D0FB691A683B6AE5
S31500003D80DB681A603B6A0022DA6005E0FB691B68A3
S31500003D9019467868FFF74CFC03217868FFF770FC3A
S31500003DA0BB6A19697B689B6858687B689B689A68D8
S31500003DB013469B0013449B001A4610230093134698
S31500003DC00246786A0AF0F2F8FB691B68002B18D0E5
S31500003DD0BB6AFA69DA60FB691A68BB6A1A61BB6A70
S31500003DE05A69BB6A9A610CE0BB6ADB69012B08D190
S31500003DF0BB6A9B69012B04D17B681B68152283F87B
S31500003E00C7217868FFF795FD7B681B6893F9C73172
S31500003E10002B3037BD4680BD80B485B000AF7860DA
S31500003E207B689B69FB607B681B69BB60FB68032B37
S31500003E3042D801A252F823F0CD3E0000493E0000D0
S31500003E406F3E0000953E0000BB681B68DAB2BB6897
S31500003E501A60BB681B6843F0802343F40003BA680A
S31500003E601360BB6803F108027B681A6125E0BB6832
S31500003E701B689AB2BB681A60BB681B6843F00043B4
S31500003E8043F40003BA681360BB6803F10C027B6855
S31500003E901A6112E0BB681B6823F07F42BB681A6098
S31500003EA0BB681B6843F00042BB681A60BB6803F13D
S31500003EB010027B681A6100E000BF7B6800229A61ED
S31500003EC07B68DB695A1E7B68DA6100E000BF143745
S31500003ED0BD465DF8047B704780B485B000AF78605E
S31500003EE07B681B688C33BB607B681B689B6E03F02A
S31500003EF02003002B0ED10023FB6008E0BA68FB68A4
S31500003F001344EC3300221A70FB680133FB60FB6834
S31500003F103A2BF3DD7B685A687B689A607B685A683F
S31500003F207B68DA607B685B69002B18D07B685A690E
S31500003F307B685B691268DA607B685B691A687B6814
S31500003F405B6912681A617B685A697B685B695268AB
S31500003F50DA617B685A697B685B6952699A617B683A
S31500003F605B685A687B681A617B685B689A687B68DD
S31500003F70DA617B6800229A617B680022DA6200BF00
S31500003F801437BD465DF8047B704790B589B002AF23
S31500003F90F860B9607A6000237B61BB681B681846CD
S31500003FA000F0F2F90321B868FFF76AFBFB68DB6FE4
S31500003FB0002B2BD1BB689B681B68002B05D0BB6808
S31500003FC09B6A5A1CBB689A6202E0BB6800229A622E
S31500003FD0BB689B6A3C2B19D1BB689B683B6102E0BE
S31500003FE03B691B683B613B691B681B68002BF7D16B
S31500003FF0BB681A683B691B6819461046FFF75CFCEC
S315000040003B6900221A60BB6800229A62BB685B6942
S31500004010002B21D07B68002B37D0BB681B68184665
S3150000402000F02BFF0446BB685B691969BB689B6897
S315000040305868BB689B689A68BB68DB69D21A1346E6
S315000040409B0013449B001A46002300931346024626
S31500004050204609F0ABFF18E0FB68D3F8843003F084
S315000040600203002B03D0B86800F026FB0DE0FB68C6
S31500004070D3F8843003F01003002B03D0B86800F0A7
S31500004080B1FB02E0B86800F06EFB7B68002B06D03F
S31500004090B868FFF721FFBB6800225A6226E0BB68BA
S315000040A00022DA61B868FFF7AAFDBB689A68BB68A8
S315000040B0DA60BB685B69002B04D0BB685B691B696F
S315000040C07B6113E0FB68D3F8843003F01203002B06
S315000040D009D0BB689B681B69002B04D0BB689B6832
S315000040E01B697B6102E0BB681B697B617B691846C3
S315000040F01C37BD4690BD80B58AB000AF7860396088
S3150000410000237B627B689B69FB6100233B623B6803
S315000041101B68BB61BB6903F08033002B00F0BE80D7
S31500004120BB69B3F1803F03D13B6804333B60ECE7E6
S31500004130BB6903F40043002B19D0BB69DBB2322BF9
S3150000414001D17B6AF0E0BB69DBB27B613B685B68EF
S315000041501A467969F86902F00BFA7B69202B02D1BD
S31500004160F86902F015FA3B6808333B60CDE7BB6996
S3150000417003F40003002B3DD0BB69DBB2FF2B11D14A
S31500004180BB691B0ADBB27B627B6A022B08D13B68E8
S3150000419004333B60F86902F0FBF901233B6201E05E
S315000041A07B6AC1E03B6A002BAFD1BB69DBB27B61A6
S315000041B0BB691B0ADBB23B613B685B681A467969DF
S315000041C0F86902F0D5F97B69202B02D1F86902F073
S315000041D0DFF93B689B681A463969F86902F0C8F945
S315000041E03B69202B02D1F86902F0D2F93B680C3307
S315000041F03B608AE7BB69002B35DABB69DBB27B61C2
S31500004200BB691B0ADBB23B61BB691B0CDBB2FB6003
S315000042103B685B681A467969F86902F0A9F97B6917
S31500004220202B02D1F86902F0B3F93B689B681A4665
S315000042303969F86902F09CF93B69202B02D1F869CB
S3150000424002F0A6F93B68DB681A46F968F86902F0DD
S315000042508FF9FB68202B02D1F86902F099F93B68C7
S3150000426010333B6051E7BB69DBB2FF2B12D1BB6950
S315000042701B0ADBB27B627B6A022B02D07B6A042BB1
S3150000428006D13B6804333B60F86902F081F93CE7EC
S315000042907B6A49E03B6804333B6036E7BB69DBB2C7
S315000042A07B61BB691B0ADBB23B61BB691B0CDBB2E2
S315000042B0FB60BB691B0EBB603B685B681A4679698D
S315000042C0F86902F055F97B69202B02D1F86902F0F2
S315000042D05FF93B689B681A463969F86902F048F944
S315000042E03B69202B02D1F86902F052F93B68DB6882
S315000042F01A46F968F86902F03BF9FB68202B02D1EF
S31500004300F86902F045F93B681B691A46B968F8690D
S3150000431002F02EF9BB68202B02D1F86902F038F9B9
S315000043203B6814333B60F0E618462837BD4680BD2F
S3150000433080B582B000AF7860786800F025F87B68B9
S31500004340DB6804211846FFF79BF900217868FFF720
S315000043502DFA034618460837BD4680BD80B582B0A3
S3150000436000AF7860786800F00FF87B68DB680221A0
S315000043701846FFF785F900217868FFF717FA034614
S3150000438018460837BD4680BD80B594B000AF78604A
S315000043907B687B637B68DB683B637B6BD3F8B431FC
S315000043A0FB647B6BD3F8B8217B6BD3F8B431D31A9B
S315000043B0DB103B643B6B1B688C33FB62FB6ABB62A6
S315000043C0FB6AEC337B627B689B6E03F02003002B59
S315000043D07ED13B6B9B69FB633B6B1B69BB64002314
S315000043E07B6465E00023BB63FB6C1B683B61FB6C75
S315000043F05B68FB60FB6C0833FB648E4A3B691344C5
S315000044001B78002B1CD07A6A3B69134493F9003061
S31500004410002B0AD03B699B00BA6A13441B68FA68F2
S315000044209A4202D10123BB630AE07A6A3B691344CC
S3150000443001221A703B699B00BA6A1344FA681A6033
S31500004440BB6B002B31D13B69D9B2BA6CFB6B134401
S315000044500A461A70BA6CFB6B9B001344FA685A60E2
S31500004460FB6B013303F00303FB633B6BDB6A5A1CF4
S315000044703B6BDA62FB6B002B17D13B6B1B6903F1BD
S3150000448014023B6B1A613B6BDB695A1E3B6BDA61AC
S315000044903B6BDB69012B05D83B6BFA6B9A61386B7A
S315000044A0FFF7ADFB3B6B1B69BB647B6C01337B6425
S315000044B07A6C3B6C9A4205D23B6B1B6893F9C73109
S315000044C0002B8FD03B6BFA6B9A6100233B64E4E0D0
S315000044D03B6BDA6A3B6C1A443B6BDA623B6B9B695B
S315000044E0FB633B6B1B6893F9C731002B40F0D5800B
S315000044F0FB6B002B3FD03B6B1B69BB641DE0FB6C69
S315000045001B683B62FB6C5B68FB61FB6C0833FB64FE
S315000045103B6C013B3B643B6AD9B2BA6CFB6B134400
S315000045200A461A70BA6CFB6B9B001344FA695A6010
S31500004530FB6B013303F00303FB633B6C002B02D0E0
S31500004540FB6B002BDBD1FB6B002B14D13B6BFA6BA7
S315000045509A613B6B1B6903F114023B6B1A613B6B5F
S31500004560DB695A1E3B6BDA613B6BDB69012B02D8B8
S31500004570386BFFF744FBFB6B002B40F08E8000236B
S315000045807B6444E03B6B1B69BB64FB6C1B68DAB263
S31500004590BB6C1A70FB6C08331B68DAB2BB6C5A70C2
S315000045A0FB6C10331B68DAB2BB6C9A70FB6C183369
S315000045B01B68DAB2BB6CDA70FB6C5A68BB6C5A606B
S315000045C0FB6C08335A68BB6C9A60FB6C10335A68F4
S315000045D0BB6CDA60FB6C18335A68BB6C1A613B6BB8
S315000045E01B6903F114023B6B1A613B6BDB695A1EB4
S315000045F03B6BDA613B6BDB69012B02D8386BFFF74B
S31500004600FEFAFB6C2033FB647B6C01337B643B6CF2
S315000046109B087A6C9A4205D23B6B1B6893F9C731AB
S31500004620002BAFD03B6C03F003033B6400237B6499
S3150000463029E000BFE0D30300FB6C1B68BB61FB6C89
S315000046405B687B61FB6C0833FB643B6B9B69FB63BC
S315000046503B6B1B69BB64BB69D9B2BA6CFB6B134479
S315000046600A461A70BA6CFB6B9B0013447A695A604F
S31500004670FB6B013303F00303FB633B6BFA6B9A613D
S315000046807B6C01337B647A6C3B6C9A4205D23B6B44
S315000046901B6893F9C731002BCED07B6BD3F8B421BE
S315000046A07B6BC3F8B8217B6B4022C3F8BC2100BFEB
S315000046B05037BD4680BD00BF80B588B002AF786078
S315000046C07B681B689B693B617B68DB687B617B68F9
S315000046D09B68FB607B681B689B6E03F00103002BE5
S315000046E03DD122E07B691B68002B09D07B69DB6822
S315000046F0002B05D07B691B681A697B69DB681A6029
S315000047007B6919697B6958687B699A6813469B00BF
S3150000471013449B001A460023009313460246386949
S3150000472009F044FC7B691B687B617A69FB689A42E5
S31500004730D8D17B6919697B6958687B699A687B68F7
S31500004740DB69D21A13469B0013449B001A460023CA
S31500004750009313460246386909F028FC00E000BFC2
S315000047601837BD4680BD80B586B000AF78607B68DF
S315000047701B689B693B617B68DB687B617B689B6828
S31500004780FB607B681B689B6E03F00103002B25D141
S315000047900FE07B6959687B699A6813469B0013444E
S315000047A09B000A460421386909F011FC7B691B68E5
S315000047B07B617A69FB689A42EBD17B6959687B69B0
S315000047C09A687B68DB69D21A13469B0013449B00E8
S315000047D00A460421386909F0FAFB00E000BF1837E1
S315000047E0BD4680BD80B586B000AF78607B681B682B
S315000047F09B693B617B68DB687B617B689B68FB60D0
S315000048007B681B689B6E03F00103002B33D11DE010
S315000048107B691B68002B09D07B69DB68002B05D000
S315000048207B691B681A697B69DB681A607B69196991
S315000048307B699A6813469B0013449B000A46042131
S31500004840386909F0C4FB7B691B687B617A69FB6880
S315000048509A42DDD17B6919697B699A687B68DB6955
S31500004860D21A13469B0013449B000A46042138695A
S3150000487009F0ADFB00E000BF1837BD4680BD80B42F
S3150000488085B000AF786039603B681B6BBB60002366
S31500004890FB6008E0FB689B00BA68134400221A60BC
S315000048A0FB680133FB603B68B3F934301A46FB689A
S315000048B09342EFDB3B680022DA8600BF1437BD4621
S315000048C05DF8047B704780B588B000AFF860B960CA
S315000048D07A60BB681B6BBB61BB68B3F936307B6122
S315000048E0BB68B3F93430013B7A699A422BDBBB686B
S315000048F0B3F934309BB210339BB21AB2BB689A86B6
S31500004900BB68B3F934309800BB681B6B01221946AB
S3150000491004F023F90246BB681A63BB681B6BBB61D4
S315000049207B69FB6108E0FB699B00BA6913440022BE
S315000049301A60FB690133FB61BB68B3F934301A4670
S31500004940FB699342EFDB7B699B00BA6913447A6883
S315000049501A607B699BB201339BB21AB2BB68DA86D6
S315000049607B699B00BA69134418462037BD4680BD53
S3150000497080B483B000AF786039603B685AB27B6818
S3150000498083F8C6213B6818460C37BD465DF8047BA4
S31500004990704780B584B000AF786039603B6803F03B
S315000049A04003002B02D00023FB6003E0702004F0DC
S315000049B0BDF8F86000217868FFF7DAFFFB68184653
S315000049C01037BD4680BDFFFF80B584B000AF78606C
S315000049D04FF4EA7004F0AAF8B860BB68002B00F048
S315000049E0C580BB687A689A66BB68002283F8C621D0
S315000049F0BB68002283F8C721BB6800229A61BB68A6
S31500004A000022DA61BB6802229A64BB680022DA647B
S31500004A10BB6800221A65BB684FF400125A65B86875
S31500004A20FDF794FD0246BB681A62BB681A6ABB684A
S31500004A305A62BB681A6ABB689A62BB681A6ABB6824
S31500004A40DA627968B868FFF7A4FF0246BB681A63A2
S31500004A50BB6800225A63BB6800229A63BB680022C7
S31500004A6083F8C421BB680022DA63BB6800221A649B
S31500004A70BB6800225A64BB6801225A66BB680022E2
S31500004A80A3F86C20BB680022A3F86E20BB68002246
S31500004A90A3F87020BB680022A3F87220BB6800222E
S31500004AA0A3F87420BB680022A3F87620BB68002216
S31500004AB0A3F87820BB6800221A61BB6800225A61FD
S31500004AC0BB680022DA60BB6800229A60BB680022DD
S31500004AD05A60BB68CC22C3F88820BB680522DA6519
S31500004AE07B6803F00403002B05D0BB68DB6D23F065
S31500004AF00102BB68DA657B6803F00803002B05D06A
S31500004B00BB68DB6D23F00402BB68DA65BB68002274
S31500004B101A66BB680022DA670023FB6010E0BA68F9
S31500004B20FB6822339B00134400225A60BA68FB6874
S31500004B30134403F5BC7300221A70FB680133FB6053
S31500004B40FB683A2BEBDDBB680022C3F88020BB680C
S31500004B50002283F8C821BB68082283F8C521064BCA
S31500004B601A68BB681A60044ABB681360BB681846BB
S31500004B701037BD4680BD00BF5C05FE1F80B584B002
S31500004B8000AF78607B689B69002B04D0786800F0E2
S31500004B900FF9F86001E00023FB60214BBB6002E0E7
S31500004BA0BB681B68BB60BB68002B04D0BB681B6876
S31500004BB07A689A42F4D1BB68002B01D102232AE01D
S31500004BC07B681A68BB681A607B6800221A6205E077
S31500004BD07B68DB6919467868FDF72AFE7B68DB6926
S31500004BE0002BF5D17B68DB6F002B04D07B68DB6F75
S31500004BF0184603F0A7FF7B681B6B002B04D07B686D
S31500004C001B6B184603F09EFF7B6800221A637868C8
S31500004C1003F098FFFB6818461037BD4680BD00BFFD
S31500004C205C05FE1F90B587B000AF786039607B6881
S31500004C303B613968786801F047FC02463B699A6136
S31500004C403B699B69002B05D105217868FFF790FE2B
S31500004C500346A7E000237B6109E03A697B691344B8
S31500004C6003F5BC7300221A707B6901337B617B6993
S31500004C703A2BF2DD3B69DB6F002B1DD03B69DB6F06
S31500004C80FB603B69D3F8883019467868FEF79FFDCC
S31500004C900246FB681A603B69D3F88820FB681C68EB
S31500004CA011467868FEF793FD03462360FB681B6890
S31500004CB01B68FA6812681A603B69D3F888103B696A
S31500004CC0D3F888301A46786804F01DFC02463B6922
S31500004CD01A613B69D3F888103B69D3F888301A46C5
S31500004CE0786804F010FC02463B695A613B691B690F
S31500004CF0002B03D03B695B69002B05D10121786845
S31500004D00FFF736FE01234DE03B691A693B69DA601D
S31500004D103B691B691A463B699A603B695B691A469F
S31500004D203B695A603B6900225A634FF4007003F0F6
S31500004D30FDFE02463B69C3F8B4213B69D3F8B421B2
S31500004D403B69C3F8B8213B694022C3F8BC213B69E3
S31500004D50164AC3F8C0213B69002283F8C9213B6982
S31500004D609B690A21184608F03FFF0346002B14D022
S31500004D703B699869FF2300220A2108F0EFFE3B6990
S31500004D809B6900220A21184608F00AFF0346FF2BFA
S31500004D9003D13B69012283F8C92100217868FFF716
S31500004DA0E7FD034618461C37BD4690BD8943000003
S31500004DB080B586B000AF78607B689B69002B53D0C6
S31500004DC07B68DB6F002B0CD07B68DB6F1B681B6876
S31500004DD000221A607B68DB6F1B6819467868FEF74D
S31500004DE06BFD7B681B697B617B685B693B617B68EC
S31500004DF000221A617B6800225A617B69002B03D06E
S31500004E007969786804F0E2FB3B69002B03D03969C5
S31500004E10786804F0DBFB7B680022DA607B6800229E
S31500004E209A607B6800225A607B6800225A637B681E
S31500004E30D3F8B431184603F085FE7B680022C3F828
S31500004E40B4217B680022C3F8B8217B689B691846A9
S31500004E5001F07DFBF8607B6800229A61F96878684A
S31500004E60FFF786FD034604E000217868FFF780FD22
S31500004E70034618461837BD4680BD80B483B000AFE0
S31500004E8078607B689B6918460C37BD465DF8047BE5
S31500004E90704780B584B000AF786039607B68002BBE
S31500004EA001D1022338E07B685B6EFB60FA683B68E1
S31500004EB09A4205D100217868FFF75AFD03462BE098
S31500004EC0FA683B689A4208D0FB68082B05D03B6815
S31500004ED0082B02D0786800F023F87B683A685A6697
S31500004EE07B685B6A93F80E217B685B6A42F001027D
S31500004EF0D2B283F80E21FB68082B02D1786804F041
S31500004F0085FD3B68082B02D1786804F039FD002145
S31500004F107868FFF72DFD034618461037BD4680BD5D
S31500004F2080B582B000AF7860786804F09FFD7B683A
S31500004F305B6A93F80E217B685B6A42F00102D2B28B
S31500004F4083F80E2100217868FFF712FD0346184604
S31500004F500837BD4680BD80B582B000AF78600B468D
S31500004F607B807B687A88A3F86C2000217868FFF73D
S31500004F70FFFC034618460837BD4680BD80B582B0A3
S31500004F8000AF78607B68002B08D0786801F014FBCE
S31500004F9000217868FFF7ECFC034600E00223184680
S31500004FA00837BD4680BD80B584B000AF78607B68A9
S31500004FB0DB68FB607868FFF7E7F9FB681A69FB684E
S31500004FC05B685B689A4201D001230FE0FB685B696E
S31500004FD0002B0AD0FB685B691A69FB685B691B6872
S31500004FE01B689A4201D1012300E0002318461037BE
S31500004FF0BD4680BD90B58DB000AFF8607B600B46B6
S315000050007B8113463B817B6C03F00103002B02D0AE
S315000050100023FB6203E0BB6CD3F81031FB627B6CB0
S3150000502003F00203002B02D00023BB6203E0BB6C3B
S31500005030D3F81031BB62BB6CD3F810311B011C4690
S315000050407B6803FB03F23B6C03FB03F31344184634
S3150000505003F041FC034694FBF3F37B62FB6C002BED
S3150000506002D0FB6C7A6A1A603B6C5B427A6A02FB7E
S3150000507003F31B113B627B687A6A02FB03F31B1185
S31500005080FB61B7F90A305B423A6A03FB02F2B7F9F1
S315000050900830F96901FB03F3D31A1B11BB61B7F999
S315000050A00A305B42FA6903FB02F2B7F90830396A43
S315000050B001FB03F313441B117B61B7F90A207B68DC
S315000050C01344FA6903FB02F2B7F908103B6C0B4470
S315000050D0396A01FB03F3D31A1B113B61BB6CD3F88E
S315000050E010315B081A46BB691A44FB681A60FB68F4
S315000050F03A6A5A60FB68FA699A60FB680C33796908
S31500005100FA6A0A441A60FB680C33FA695A60FB684B
S315000051100C333A6A52429A60FB6818333969BA6AA4
S315000051200A441A60FB681833FA6952425A60FB68EF
S3150000513018333A6A9A6000BF3437BD4690BD80B5D1
S315000051408CB000AFF8607B600B467B8113463B81D9
S31500005150FB6B03F00103002B02D00023FB6202E08D
S315000051604FF48033FB62FB6B03F00203002B02D08B
S315000051700023BB6202E04FF48033BB627B6803FB13
S3150000518003F2BB6B03FB03F31344184603F0A3FBC4
S3150000519003464FF4801292FBF3F37B623B6C002BC9
S315000051A002D03B6C7A6A1A60BB6B5B427A6A02FB7E
S315000051B003F31B113B627B687A6A02FB03F31B1144
S315000051C0FB61B7F90A305B423A6A03FB02F2B7F9B0
S315000051D00830F96901FB03F3D31A1B11BB61B7F958
S315000051E00A305B42FA6903FB02F2B7F90830396A02
S315000051F001FB03F313441B117B61B7F90A207B689B
S315000052001344FA6903FB02F2B7F90810BB6B0B44AF
S31500005210396A01FB03F3D31A1B113B61BB6903F522
S315000052200042FB681A60FB683A6A5A60FB68FA69D2
S315000052309A60FB680C337969FA6A0A441A60FB685B
S315000052400C33FA695A60FB680C333A6A52429A6028
S31500005250FB6818333969BA6A0A441A60FB6818335E
S31500005260FA6952425A60FB6818333A6A9A6000BF7C
S315000052703037BD4680BDFFFF80B48DB000AFF8600B
S315000052807B600B467B8113463B81FB6B03F001037E
S31500005290002B02D00023BB6102E04FF48033BB61D8
S315000052A0FB6B03F00203002B02D000237B6102E0BC
S315000052B04FF480337B617B68002B80F2F080BB6B00
S315000052C0002B77DA7A68BB6B9A4238DABB6B1A0422
S315000052D07B6892FBF3F33B61B7F908301A03B7F921
S315000052E00A30396901FB03F31B11D31A7B62B7F944
S315000052F00A301A03B7F90830396901FB03F31B11A9
S3150000530013443B62B7F90A207B6813441B035A42D5
S31500005310B7F90810BB6B0B44396901FB03F31B118A
S31500005320D31AFB613B69FB629B4BBB623B6C002B58
S3150000533000F0A8817B685A423B6C1A60A2E17B6848
S315000053401A04BB6B5B4292FBF3F33B61B7F90A307D
S315000053505B421A03B7F90830396901FB03F31B11E5
S31500005360D31A7B62B7F908301A03B7F90A303969DC
S3150000537001FB03F31B11D31A3B62B7F90A207B68C2
S3150000538013443A6902FB03F31A11B7F90810BB6B11
S315000053900B441B03D31AFB614FF48033FB623B695A
S315000053A0BB623B6C002B00F06D81BB6B5A423B6CC1
S315000053B01A6067E17B685B42BA6B9A4237DABB6B6D
S315000053C01A047B6892FBF3F33B61B7F908301A03C2
S315000053D0B7F90A30396901FB03F31B11D31A7B6253
S315000053E0B7F90A301A03B7F90830396901FB03F334
S315000053F01B1113443B62B7F90A207B6813441B0355
S315000054005A42B7F90810BB6B0B44396901FB03F329
S315000054101B11D31AFB613B69FB625F4BBB623B6CA2
S31500005420002B00F02F813B6C7A681A602AE17B68BA
S315000054301A04BB6B92FBF3F33B61B7F90A301A030C
S31500005440B7F90830396901FB03F31B11D31A7B62E4
S31500005450B7F908305B421A03B7F90A30396901FB1C
S3150000546003F31B11D31A3B62B7F90A207B68134476
S315000054703A6902FB03F31A11B7F90810BB6B0B4428
S315000054801B031344FB61444BFB623B69BB623B6CF1
S31500005490002B00F0F7803B6CBA6B1A60F2E0BB6B36
S315000054A0002B7BDABB6B5B427A689A423ADDBB6BB8
S315000054B01A047B685B4292FBF3F33B61B7F9083051
S315000054C05B421A03B7F90A30396901FB03F31B1172
S315000054D0D31A7B62B7F90A305B421A03B7F9083070
S315000054E0396901FB03F31B1113443B62B7F90A2028
S315000054F07B6813441A03B7F90810BB6B0B44396970
S3150000550001FB03F31B11D31AFB613B69FB624FF4EA
S315000055108033BB623B6C002B00F0B4803B6C7A6836
S315000055201A60AFE07B681A04BB6B5B4292FBF3F335
S315000055303B61B7F90A305B421A03B7F9083039699B
S3150000554001FB03F31B11D31A7B62B7F908301A0368
S31500005550B7F90A30396901FB03F31B11D31A3B6211
S31500005560B7F90A207B6813443A6902FB03F31A1160
S31500005570B7F90810BB6B0B441B03D31AFB614FF43E
S315000055808033FB623B69BB623B6C002B7AD0BB6B02
S315000055905A423B6C1A6075E00000FFFF7A68BB6BED
S315000055A09A4239DDBB6B1A047B685B4292FBF3F3CC
S315000055B03B61B7F908305B421A03B7F90A3039691B
S315000055C001FB03F31B11D31A7B62B7F90A305B4266
S315000055D01A03B7F90830396901FB03F31B111344A9
S315000055E03B62B7F90A207B6813441A03B7F908101F
S315000055F0BB6B0B44396901FB03F31B11D31AFB6127
S315000056003B69FB624FF48033BB623B6C002B39D0A5
S315000056103B6C7A681A6035E07B681A04BB6B92FBB8
S31500005620F3F33B61B7F90A301A03B7F90830396961
S3150000563001FB03F31B11D31A7B62B7F908305B42F7
S315000056401A03B7F90A30396901FB03F31B11D31AA0
S315000056503B62B7F90A207B6813443A6902FB03F3FD
S315000056601A11B7F90810BB6B0B441B031344FB61FB
S315000056701C4BFB623B69BB623B6C002B02D03B6C54
S31500005680BA6B1A607B6A03F50042FB681A60FB6816
S31500005690FA6A5A60FB68BA6A9A60FB680C33396A20
S315000056A0BA690A441A60FB680C33BA6A5A60FB6826
S315000056B00C33FA6A52429A60FB681833F9697A69C0
S315000056C00A441A60FB681833BA6A52425A60FB6889
S315000056D01833FA6A9A6000BF3437BD465DF8047B1A
S315000056E0704700BF0000FFFF80B489B000AFF860CC
S315000056F07B600B467B8113463B817B68002B71DA0E
S31500005700BB6A002B3DDA7B689AB27B8913449BB255
S315000057107B81BB6A9AB23B8913449BB23B817A6810
S31500005720BB6A9A4217DD7B681A04BB6A92FBF3F3E5
S315000057303B61B7F908303A6902FB03F31A11B7F96E
S315000057400A301B03D31AFB614FF48033BB613B69FC
S315000057505B427B61BBE0BB6A1A047B6892FBF3F396
S315000057603B61B7F908301A03B7F90A30396901FB0A
S3150000577003F31B11D31AFB613B69BB615E4B7B6173
S31500005780A5E07B685B42BA6A9A4215DABB6A1A04DC
S315000057907B6892FBF3F33B61B7F908301A03B7F95C
S315000057A00A30396901FB03F31B11D31AFB613B690C
S315000057B0BB61514B7B618AE07B681A04BB6A92FB32
S315000057C0F3F33B61B7F90A301A03B7F908303969C0
S315000057D001FB03F31B11D31AFB61474BBB613B690A
S315000057E07B6174E0BB6A002B40DA7B689AB27B89E6
S315000057F013449BB27B81BB6A9AB23B8913449BB22A
S315000058003B81BB6A5B427A689A4217DDBB6A1A041F
S315000058107B6892FBF3F33B61B7F90A303A6902FB06
S3150000582003F31A11B7F908301B03D31AFB613B695E
S315000058305B42BB614FF480337B6148E07B681A04AE
S31500005840BB6A92FBF3F33B61B7F908303A6902FB96
